:100000000EC01EC01DC01CC01BC01BC019C018C024
:1000100017C016C015C014C013C012C011C01124DF
:100020001FBECFEDCDBF10E0A0E6B0E0E4EAF0E007
:1000300002C005900D92A236B107D9F71ED030C08C
:10004000DFCF1F920F920FB60F9211248F939F93C1
:1000500080916000815019F08093600007C084E1B6
:100060008093600088B390E1892788BB9F918F912E
:100070000F900FBE0F901F901895BC9A18BA1ABC1B
:1000800083E083BF82E089BF789485B7877E85BF90
:1000900085B7806285BF889585B78F7D85BFF5CF91
:0400A000F894FFCF02
:0200A400140046
:00000001FF
